{
  "contractName": "Subcurrency",
  "abi": [
    {
      "constant": true,
      "inputs": [],
      "name": "minter",
      "outputs": [
        {
          "name": "",
          "type": "address"
        }
      ],
      "payable": false,
      "stateMutability": "view",
      "type": "function"
    },
    {
      "constant": true,
      "inputs": [
        {
          "name": "",
          "type": "address"
        }
      ],
      "name": "balances",
      "outputs": [
        {
          "name": "",
          "type": "uint256"
        }
      ],
      "payable": false,
      "stateMutability": "view",
      "type": "function"
    },
    {
      "constant": false,
      "inputs": [
        {
          "name": "receiver",
          "type": "address"
        },
        {
          "name": "amount",
          "type": "uint256"
        }
      ],
      "name": "mint",
      "outputs": [],
      "payable": false,
      "stateMutability": "nonpayable",
      "type": "function"
    },
    {
      "constant": false,
      "inputs": [
        {
          "name": "receiver",
          "type": "address"
        },
        {
          "name": "amount",
          "type": "uint256"
        }
      ],
      "name": "send",
      "outputs": [],
      "payable": false,
      "stateMutability": "nonpayable",
      "type": "function"
    },
    {
      "constant": true,
      "inputs": [
        {
          "name": "_account",
          "type": "address"
        }
      ],
      "name": "getBalance",
      "outputs": [
        {
          "name": "",
          "type": "uint256"
        }
      ],
      "payable": false,
      "stateMutability": "view",
      "type": "function"
    },
    {
      "inputs": [],
      "payable": false,
      "stateMutability": "nonpayable",
      "type": "constructor"
    },
    {
      "anonymous": false,
      "inputs": [
        {
          "indexed": false,
          "name": "from",
          "type": "address"
        },
        {
          "indexed": false,
          "name": "to",
          "type": "address"
        },
        {
          "indexed": false,
          "name": "amount",
          "type": "uint256"
        }
      ],
      "name": "Sent",
      "type": "event"
    }
  ],
  "bytecode": "0x6060604052341561000f57600080fd5b336000806101000a81548173ffffffffffffffffffffffffffffffffffffffff021916908373ffffffffffffffffffffffffffffffffffffffff1602179055506104ce8061005e6000396000f30060606040526004361061006d576000357c0100000000000000000000000000000000000000000000000000000000900463ffffffff168063075461721461007257806327e235e3146100c757806340c10f1914610114578063d0679d3414610156578063f8b2cb4f14610198575b600080fd5b341561007d57600080fd5b6100856101e5565b604051808273ffffffffffffffffffffffffffffffffffffffff1673ffffffffffffffffffffffffffffffffffffffff16815260200191505060405180910390f35b34156100d257600080fd5b6100fe600480803573ffffffffffffffffffffffffffffffffffffffff1690602001909190505061020a565b6040518082815260200191505060405180910390f35b341561011f57600080fd5b610154600480803573ffffffffffffffffffffffffffffffffffffffff16906020019091908035906020019091905050610222565b005b341561016157600080fd5b610196600480803573ffffffffffffffffffffffffffffffffffffffff169060200190919080359060200190919050506102cf565b005b34156101a357600080fd5b6101cf600480803573ffffffffffffffffffffffffffffffffffffffff16906020019091905050610459565b6040518082815260200191505060405180910390f35b6000809054906101000a900473ffffffffffffffffffffffffffffffffffffffff1681565b60016020528060005260406000206000915090505481565b6000809054906101000a900473ffffffffffffffffffffffffffffffffffffffff1673ffffffffffffffffffffffffffffffffffffffff163373ffffffffffffffffffffffffffffffffffffffff1614151561027d576102cb565b80600160008473ffffffffffffffffffffffffffffffffffffffff1673ffffffffffffffffffffffffffffffffffffffff168152602001908152602001600020600082825401925050819055505b5050565b80600160003373ffffffffffffffffffffffffffffffffffffffff1673ffffffffffffffffffffffffffffffffffffffff16815260200190815260200160002054101561031b57610455565b80600160003373ffffffffffffffffffffffffffffffffffffffff1673ffffffffffffffffffffffffffffffffffffffff1681526020019081526020016000206000828254039250508190555080600160008473ffffffffffffffffffffffffffffffffffffffff1673ffffffffffffffffffffffffffffffffffffffff168152602001908152602001600020600082825401925050819055507f3990db2d31862302a685e8086b5755072a6e2b5b780af1ee81ece35ee3cd3345338383604051808473ffffffffffffffffffffffffffffffffffffffff1673ffffffffffffffffffffffffffffffffffffffff1681526020018373ffffffffffffffffffffffffffffffffffffffff1673ffffffffffffffffffffffffffffffffffffffff168152602001828152602001935050505060405180910390a15b5050565b6000600160008373ffffffffffffffffffffffffffffffffffffffff1673ffffffffffffffffffffffffffffffffffffffff1681526020019081526020016000205490509190505600a165627a7a72305820a2d357fbcb03140595da7cebb70f973a30a3a193903c0aedcb28277fb24f138f0029",
  "source": "pragma solidity  ^0.4.0;\n\n\ncontract Subcurrency {\n    address public minter;\n    mapping (address => uint) public balances;\n\n    // events allow light nodes to react to changes\n    event Sent(address from, address to, uint amount);\n\n    // Constructor, run on creation\n    function Subcurrency() public {\n        // msg.sender is the address of who called a function\n        minter = msg.sender;\n    }\n\n    function mint(address receiver, uint amount) public {\n        if (msg.sender != minter) return;\n        balances[receiver] += amount;\n    }\n\n    function send(address receiver, uint amount) public {\n        if (balances[msg.sender] < amount) return;\n        balances[msg.sender] -= amount;\n        balances[receiver] += amount;\n        Sent(msg.sender, receiver, amount);\n    }\n\n    function getBalance(address _account) public view returns (uint) {\n        return balances[_account];\n    }\n    \n}",
  "sourcePath": "/home/austin/private-chain/Projects/Subcurrency/contracts/Subcurrency.sol",
  "compiler": {
    "name": "solc",
    "version": "0.4.18+commit.9cf6e910.Emscripten.clang"
  },
  "schemaVersion": "1.0.1",
  "updatedAt": "2018-01-30T23:45:31.568Z"
}