{
  "contractName": "SmartToken",
  "abi": [
    {
      "constant": false,
      "inputs": [
        {
          "name": "recipient",
          "type": "address"
        },
        {
          "name": "value",
          "type": "uint256"
        }
      ],
      "name": "depositToken",
      "outputs": [
        {
          "name": "success",
          "type": "bool"
        }
      ],
      "payable": false,
      "stateMutability": "nonpayable",
      "type": "function"
    },
    {
      "constant": true,
      "inputs": [
        {
          "name": "recipient",
          "type": "address"
        }
      ],
      "name": "getTokens",
      "outputs": [
        {
          "name": "value",
          "type": "uint256"
        }
      ],
      "payable": false,
      "stateMutability": "view",
      "type": "function"
    },
    {
      "constant": false,
      "inputs": [
        {
          "name": "recipient",
          "type": "address"
        },
        {
          "name": "value",
          "type": "uint256"
        }
      ],
      "name": "withdrawToken",
      "outputs": [
        {
          "name": "success",
          "type": "bool"
        }
      ],
      "payable": false,
      "stateMutability": "nonpayable",
      "type": "function"
    },
    {
      "constant": true,
      "inputs": [
        {
          "name": "value",
          "type": "uint256"
        }
      ],
      "name": "add12",
      "outputs": [
        {
          "name": "newvalue",
          "type": "uint256"
        }
      ],
      "payable": false,
      "stateMutability": "pure",
      "type": "function"
    },
    {
      "anonymous": false,
      "inputs": [
        {
          "indexed": true,
          "name": "_from",
          "type": "address"
        },
        {
          "indexed": false,
          "name": "_value",
          "type": "uint256"
        }
      ],
      "name": "OnValueChanged",
      "type": "event"
    }
  ],
  "bytecode": "0x6060604052341561000f57600080fd5b61047a8061001e6000396000f300606060405260043610610062576000357c0100000000000000000000000000000000000000000000000000000000900463ffffffff168063338b5dea14610067578063450efe21146100c15780639e281a981461010e578063c13f873a14610168575b600080fd5b341561007257600080fd5b6100a7600480803573ffffffffffffffffffffffffffffffffffffffff1690602001909190803590602001909190505061019f565b604051808215151515815260200191505060405180910390f35b34156100cc57600080fd5b6100f8600480803573ffffffffffffffffffffffffffffffffffffffff16906020019091905050610283565b6040518082815260200191505060405180910390f35b341561011957600080fd5b61014e600480803573ffffffffffffffffffffffffffffffffffffffff169060200190919080359060200190919050506102cb565b604051808215151515815260200191505060405180910390f35b341561017357600080fd5b6101896004808035906020019091905050610441565b6040518082815260200191505060405180910390f35b6000816000808573ffffffffffffffffffffffffffffffffffffffff1673ffffffffffffffffffffffffffffffffffffffff168152602001908152602001600020600082825401925050819055508273ffffffffffffffffffffffffffffffffffffffff167f65dce515c55eb8d94c3ec733006907bb1a555ef5fb2ab7227019830d4f90a2596000808673ffffffffffffffffffffffffffffffffffffffff1673ffffffffffffffffffffffffffffffffffffffff168152602001908152602001600020546040518082815260200191505060405180910390a26001905092915050565b60008060008373ffffffffffffffffffffffffffffffffffffffff1673ffffffffffffffffffffffffffffffffffffffff168152602001908152602001600020549050919050565b600080826000808673ffffffffffffffffffffffffffffffffffffffff1673ffffffffffffffffffffffffffffffffffffffff1681526020019081526020016000205403101561035e5760008060008573ffffffffffffffffffffffffffffffffffffffff1673ffffffffffffffffffffffffffffffffffffffff168152602001908152602001600020819055506103ab565b816000808573ffffffffffffffffffffffffffffffffffffffff1673ffffffffffffffffffffffffffffffffffffffff168152602001908152602001600020600082825403925050819055505b8273ffffffffffffffffffffffffffffffffffffffff167f65dce515c55eb8d94c3ec733006907bb1a555ef5fb2ab7227019830d4f90a2596000808673ffffffffffffffffffffffffffffffffffffffff1673ffffffffffffffffffffffffffffffffffffffff168152602001908152602001600020546040518082815260200191505060405180910390a26001905092915050565b6000600d820190509190505600a165627a7a7230582040d362d268fd511a196e287e309c2a7f28af1e29ad78406caf8f2e3456566e6b0029",
  "source": "pragma solidity ^0.4.0;\n\ncontract SmartToken {\n\tmapping(address => uint) tokens;\n\n\tevent OnValueChanged(address indexed _from, uint _value);\n\n\tfunction depositToken(address recipient, uint value)\n\tpublic returns (bool success) {\n\t\ttokens[recipient] += value;\n\t\tOnValueChanged(recipient, tokens[recipient]);\n\t\treturn true;\n\t}\n\n\tfunction withdrawToken(address recipient, uint value)\n\tpublic returns (bool success) {\n\t\tif ( (tokens[recipient] - value < 0)) {\n\t\t\ttokens[recipient] = 0;\n\t\t} else {\n\t\t\ttokens[recipient] -= value;\n\t\t}\n\n\t\tOnValueChanged(recipient, tokens[recipient]);\n\t\treturn true;\n\t}\n\n\tfunction getTokens(address recipient)\n\tpublic constant returns(uint value) {\n\t\treturn tokens[recipient];\n\t}\n\n\tfunction add12(uint value)\n\tpublic pure returns (uint newvalue) {\n\t\treturn value + 13;\n\t}\n}\n",
  "sourcePath": "/home/austin/private-chain/Projects/SmartToken/contracts/SmartToken.sol",
  "compiler": {
    "name": "solc",
    "version": "0.4.18+commit.9cf6e910.Emscripten.clang"
  },
  "schemaVersion": "1.0.1",
  "updatedAt": "2018-01-27T22:37:49.836Z"
}