{
  "contractName": "Ballot",
  "abi": [
    {
      "constant": false,
      "inputs": [
        {
          "name": "proposal",
          "type": "uint256"
        }
      ],
      "name": "vote",
      "outputs": [],
      "payable": false,
      "stateMutability": "nonpayable",
      "type": "function"
    },
    {
      "constant": true,
      "inputs": [
        {
          "name": "",
          "type": "uint256"
        }
      ],
      "name": "proposals",
      "outputs": [
        {
          "name": "name",
          "type": "bytes32"
        },
        {
          "name": "voteCount",
          "type": "uint256"
        }
      ],
      "payable": false,
      "stateMutability": "view",
      "type": "function"
    },
    {
      "constant": true,
      "inputs": [],
      "name": "chairperson",
      "outputs": [
        {
          "name": "",
          "type": "address"
        }
      ],
      "payable": false,
      "stateMutability": "view",
      "type": "function"
    },
    {
      "constant": true,
      "inputs": [],
      "name": "winningProposal",
      "outputs": [
        {
          "name": "winner",
          "type": "uint256"
        }
      ],
      "payable": false,
      "stateMutability": "view",
      "type": "function"
    },
    {
      "constant": false,
      "inputs": [
        {
          "name": "voter",
          "type": "address"
        }
      ],
      "name": "giveRightToVote",
      "outputs": [],
      "payable": false,
      "stateMutability": "nonpayable",
      "type": "function"
    },
    {
      "constant": true,
      "inputs": [
        {
          "name": "",
          "type": "address"
        }
      ],
      "name": "voters",
      "outputs": [
        {
          "name": "weight",
          "type": "uint256"
        },
        {
          "name": "voted",
          "type": "bool"
        },
        {
          "name": "delegate",
          "type": "address"
        },
        {
          "name": "vote",
          "type": "uint256"
        }
      ],
      "payable": false,
      "stateMutability": "view",
      "type": "function"
    },
    {
      "constant": false,
      "inputs": [
        {
          "name": "to",
          "type": "address"
        }
      ],
      "name": "delegateTo",
      "outputs": [],
      "payable": false,
      "stateMutability": "nonpayable",
      "type": "function"
    },
    {
      "constant": true,
      "inputs": [],
      "name": "winnerName",
      "outputs": [
        {
          "name": "winner",
          "type": "bytes32"
        }
      ],
      "payable": false,
      "stateMutability": "view",
      "type": "function"
    },
    {
      "inputs": [
        {
          "name": "proposalNames",
          "type": "bytes32[]"
        }
      ],
      "payable": false,
      "stateMutability": "nonpayable",
      "type": "constructor"
    }
  ],
  "bytecode": "0x6060604052341561000f57600080fd5b604051610b0b380380610b0b833981016040528080518201919050506000336000806101000a81548173ffffffffffffffffffffffffffffffffffffffff021916908373ffffffffffffffffffffffffffffffffffffffff16021790555060018060008060009054906101000a900473ffffffffffffffffffffffffffffffffffffffff1673ffffffffffffffffffffffffffffffffffffffff1673ffffffffffffffffffffffffffffffffffffffff16815260200190815260200160002060000181905550600090505b815181101561016757600280548060010182816100f7919061016e565b916000526020600020906002020160006040805190810160405280868681518110151561012057fe5b9060200190602002015160001916815260200160008152509091909150600082015181600001906000191690556020820151816001015550505080806001019150506100da565b50506101cf565b81548183558181151161019b5760020281600202836000526020600020918201910161019a91906101a0565b5b505050565b6101cc91905b808211156101c8576000808201600090556001820160009055506002016101a6565b5090565b90565b61092d806101de6000396000f30060606040526004361061008e576000357c0100000000000000000000000000000000000000000000000000000000900463ffffffff1680630121b93f14610093578063013cf08b146100b65780632e4176cf146100fc578063609ff1bd146101515780639e7b8d611461017a578063a3ec138d146101b3578063ac637c7a14610245578063e2ba53f01461027e575b600080fd5b341561009e57600080fd5b6100b460048080359060200190919050506102af565b005b34156100c157600080fd5b6100d7600480803590602001909190505061036c565b6040518083600019166000191681526020018281526020019250505060405180910390f35b341561010757600080fd5b61010f61039f565b604051808273ffffffffffffffffffffffffffffffffffffffff1673ffffffffffffffffffffffffffffffffffffffff16815260200191505060405180910390f35b341561015c57600080fd5b6101646103c4565b6040518082815260200191505060405180910390f35b341561018557600080fd5b6101b1600480803573ffffffffffffffffffffffffffffffffffffffff1690602001909190505061043f565b005b34156101be57600080fd5b6101ea600480803573ffffffffffffffffffffffffffffffffffffffff1690602001909190505061058b565b60405180858152602001841515151581526020018373ffffffffffffffffffffffffffffffffffffffff1673ffffffffffffffffffffffffffffffffffffffff16815260200182815260200194505050505060405180910390f35b341561025057600080fd5b61027c600480803573ffffffffffffffffffffffffffffffffffffffff169060200190919050506105e8565b005b341561028957600080fd5b6102916108d2565b60405180826000191660001916815260200191505060405180910390f35b6000600160003373ffffffffffffffffffffffffffffffffffffffff1673ffffffffffffffffffffffffffffffffffffffff16815260200190815260200160002090508060010160009054906101000a900460ff1615151561031057600080fd5b60018160010160006101000a81548160ff021916908315150217905550818160020181905550806000015460028381548110151561034a57fe5b9060005260206000209060020201600101600082825401925050819055505050565b60028181548110151561037b57fe5b90600052602060002090600202016000915090508060000154908060010154905082565b6000809054906101000a900473ffffffffffffffffffffffffffffffffffffffff1681565b6000806000809150600090505b60028054905081101561043a57816002828154811015156103ee57fe5b906000526020600020906002020160010154111561042d5760028181548110151561041557fe5b90600052602060002090600202016001015491508092505b80806001019150506103d1565b505090565b6000809054906101000a900473ffffffffffffffffffffffffffffffffffffffff1673ffffffffffffffffffffffffffffffffffffffff163373ffffffffffffffffffffffffffffffffffffffff161480156104e85750600160008273ffffffffffffffffffffffffffffffffffffffff1673ffffffffffffffffffffffffffffffffffffffff16815260200190815260200160002060010160009054906101000a900460ff16155b801561053657506000600160008373ffffffffffffffffffffffffffffffffffffffff1673ffffffffffffffffffffffffffffffffffffffff16815260200190815260200160002060000154145b151561054157600080fd5b60018060008373ffffffffffffffffffffffffffffffffffffffff1673ffffffffffffffffffffffffffffffffffffffff1681526020019081526020016000206000018190555050565b60016020528060005260406000206000915090508060000154908060010160009054906101000a900460ff16908060010160019054906101000a900473ffffffffffffffffffffffffffffffffffffffff16908060020154905084565b600080600160003373ffffffffffffffffffffffffffffffffffffffff1673ffffffffffffffffffffffffffffffffffffffff16815260200190815260200160002091508160010160009054906101000a900460ff1615151561064a57600080fd5b3373ffffffffffffffffffffffffffffffffffffffff168373ffffffffffffffffffffffffffffffffffffffff161415151561068557600080fd5b5b600073ffffffffffffffffffffffffffffffffffffffff16600160008573ffffffffffffffffffffffffffffffffffffffff1673ffffffffffffffffffffffffffffffffffffffff16815260200190815260200160002060010160019054906101000a900473ffffffffffffffffffffffffffffffffffffffff1673ffffffffffffffffffffffffffffffffffffffff161415156107c357600160008473ffffffffffffffffffffffffffffffffffffffff1673ffffffffffffffffffffffffffffffffffffffff16815260200190815260200160002060010160019054906101000a900473ffffffffffffffffffffffffffffffffffffffff1692503373ffffffffffffffffffffffffffffffffffffffff168373ffffffffffffffffffffffffffffffffffffffff16141515156107be57600080fd5b610686565b60018260010160006101000a81548160ff021916908315150217905550828260010160016101000a81548173ffffffffffffffffffffffffffffffffffffffff021916908373ffffffffffffffffffffffffffffffffffffffff160217905550600160008473ffffffffffffffffffffffffffffffffffffffff1673ffffffffffffffffffffffffffffffffffffffff16815260200190815260200160002090508060010160009054906101000a900460ff16156108b65781600001546002826002015481548110151561089357fe5b9060005260206000209060020201600101600082825401925050819055506108cd565b816000015481600001600082825401925050819055505b505050565b600060026108de6103c4565b8154811015156108ea57fe5b9060005260206000209060020201600001549050905600a165627a7a72305820294c35f8d36569891b372b329f16938f0926f55be06573cc0458329b808a3e040029",
  "source": "pragma solidity ^0.4.0;\n\n\n/// @title Voting with delegtation.\ncontract Ballot {\n\n    // Represent a voter\n    struct Voter {\n        uint weight;\n        bool voted;\n        address delegate;\n        uint vote;\n    }\n\n    // Represent a proposal\n    struct Proposal {\n        bytes32 name;\n        uint voteCount;\n    }\n\n    address public chairperson;\n    \n    // stores Voter struct for each address\n    mapping(address => Voter) public voters;\n\n    // dynamically-sized array of Proposal structs\n    Proposal[] public proposals;\n\n    /// Create a new ballot\n    function Ballot(bytes32[] proposalNames) public {\n        chairperson = msg.sender;\n        voters[chairperson].weight = 1;\n        \n        //for each provided proposal, create a Proposal object\n        for (uint i = 0; i < proposalNames.length; i++) {\n            // push new Proposal objects to proposals array\n            proposals.push(Proposal({\n                name: proposalNames[i],\n                voteCount: 0\n            }));\n        }\n    }\n\n    /// Give 'voter' a right to vote.\n    /// Only from chairperson\n    function giveRightToVote(address voter) public {\n        // 'require' when false:\n        //      terminates\n        //      reverts changes\n        require((msg.sender == chairperson) &&\n                !voters[voter].voted &&\n                (voters[voter].weight == 0));\n        voters[voter].weight = 1;\n    }\n\n    /// Delegate your vote to the voter 'to'\n    function delegateTo(address to) public {\n        // assign reference: 'storage' makes it a pointer\n        Voter storage sender = voters[msg.sender];\n        require(!sender.voted);\n        require(to != msg.sender);\n\n        // forward delegation if delegate has already delegated\n        while (voters[to].delegate != address(0)) {\n            to = voters[to].delegate;\n            require(to != msg.sender);\n        }\n\n        // Modify sender Voter object\n        sender.voted = true;\n        sender.delegate = to;\n        Voter storage delegate = voters[to];\n        if (delegate.voted) {\n            // If delegate has voted, vote for what they did\n            proposals[delegate.vote].voteCount += sender.weight;\n        } else {\n            // otherwise, add weight to whatever they vote for\n            delegate.weight += sender.weight;\n        }\n    }\n\n    function vote(uint proposal) public {\n        Voter storage sender = voters[msg.sender];\n        require(!sender.voted);\n        sender.voted = true;\n        sender.vote = proposal;\n        \n        // If there is an IndexOutOfRange error, \n        // it throws an error and is automatically reverted.\n        proposals[proposal].voteCount += sender.weight;\n    }\n\n    /// @dev Computes winning proposal\n    function winningProposal() public view \n        returns (uint winner) \n    {\n        uint winningVoteCount = 0;\n        for (uint p = 0; p < proposals.length; p++) {\n            if (proposals[p].voteCount > winningVoteCount) {\n                winningVoteCount = proposals[p].voteCount;\n                winner = p;\n            }\n        }\n    }\n\n    /// Calls winningProposal() and gets name \n    function winnerName() public view\n        returns (bytes32 winner)\n    {\n        winner = proposals[winningProposal()].name;\n    }\n\n}\n",
  "sourcePath": "/home/austin/private-chain/Projects/Ballot/contracts/Ballot.sol",
  "compiler": {
    "name": "solc",
    "version": "0.4.18+commit.9cf6e910.Emscripten.clang"
  },
  "schemaVersion": "1.0.1",
  "updatedAt": "2018-01-31T01:11:36.985Z"
}