{
  "contractName": "Purchase",
  "abi": [
    {
      "constant": true,
      "inputs": [],
      "name": "seller",
      "outputs": [
        {
          "name": "",
          "type": "address"
        }
      ],
      "payable": false,
      "stateMutability": "view",
      "type": "function"
    },
    {
      "constant": false,
      "inputs": [],
      "name": "abort",
      "outputs": [],
      "payable": false,
      "stateMutability": "nonpayable",
      "type": "function"
    },
    {
      "constant": true,
      "inputs": [],
      "name": "value",
      "outputs": [
        {
          "name": "",
          "type": "uint256"
        }
      ],
      "payable": false,
      "stateMutability": "view",
      "type": "function"
    },
    {
      "constant": true,
      "inputs": [],
      "name": "buyer",
      "outputs": [
        {
          "name": "",
          "type": "address"
        }
      ],
      "payable": false,
      "stateMutability": "view",
      "type": "function"
    },
    {
      "constant": false,
      "inputs": [],
      "name": "confirmReceived",
      "outputs": [],
      "payable": false,
      "stateMutability": "nonpayable",
      "type": "function"
    },
    {
      "constant": true,
      "inputs": [],
      "name": "state",
      "outputs": [
        {
          "name": "",
          "type": "uint8"
        }
      ],
      "payable": false,
      "stateMutability": "view",
      "type": "function"
    },
    {
      "constant": false,
      "inputs": [],
      "name": "confirmPurchase",
      "outputs": [],
      "payable": true,
      "stateMutability": "payable",
      "type": "function"
    },
    {
      "inputs": [],
      "payable": true,
      "stateMutability": "payable",
      "type": "constructor"
    },
    {
      "anonymous": false,
      "inputs": [],
      "name": "Aborted",
      "type": "event"
    },
    {
      "anonymous": false,
      "inputs": [],
      "name": "PurchaseConfirmed",
      "type": "event"
    },
    {
      "anonymous": false,
      "inputs": [],
      "name": "ItemReceived",
      "type": "event"
    }
  ],
  "bytecode": "0x606060405233600160006101000a81548173ffffffffffffffffffffffffffffffffffffffff021916908373ffffffffffffffffffffffffffffffffffffffff16021790555060023481151561005157fe5b046000819055503460005460020214151561006b57600080fd5b6106518061007a6000396000f300606060405260043610610083576000357c0100000000000000000000000000000000000000000000000000000000900463ffffffff16806308551a531461008857806335a063b4146100dd5780633fa4f245146100f25780637150d8ae1461011b57806373fac6f014610170578063c19d93fb14610185578063d6960697146101bc575b600080fd5b341561009357600080fd5b61009b6101c6565b604051808273ffffffffffffffffffffffffffffffffffffffff1673ffffffffffffffffffffffffffffffffffffffff16815260200191505060405180910390f35b34156100e857600080fd5b6100f06101ec565b005b34156100fd57600080fd5b610105610348565b6040518082815260200191505060405180910390f35b341561012657600080fd5b61012e61034e565b604051808273ffffffffffffffffffffffffffffffffffffffff1673ffffffffffffffffffffffffffffffffffffffff16815260200191505060405180910390f35b341561017b57600080fd5b610183610374565b005b341561019057600080fd5b610198610534565b604051808260028111156101a857fe5b60ff16815260200191505060405180910390f35b6101c4610547565b005b600160009054906101000a900473ffffffffffffffffffffffffffffffffffffffff1681565b600160009054906101000a900473ffffffffffffffffffffffffffffffffffffffff1673ffffffffffffffffffffffffffffffffffffffff163373ffffffffffffffffffffffffffffffffffffffff1614151561024857600080fd5b600080600281111561025657fe5b600260149054906101000a900460ff16600281111561027157fe5b14151561027d57600080fd5b7f72c874aeff0b183a56e2b79c71b46e1aed4dee5e09862134b8821ba2fddbf8bf60405160405180910390a160028060146101000a81548160ff021916908360028111156102c757fe5b0217905550600160009054906101000a900473ffffffffffffffffffffffffffffffffffffffff1673ffffffffffffffffffffffffffffffffffffffff166108fc3073ffffffffffffffffffffffffffffffffffffffff16319081150290604051600060405180830381858888f19350505050151561034557600080fd5b50565b60005481565b600260009054906101000a900473ffffffffffffffffffffffffffffffffffffffff1681565b600260009054906101000a900473ffffffffffffffffffffffffffffffffffffffff1673ffffffffffffffffffffffffffffffffffffffff163373ffffffffffffffffffffffffffffffffffffffff161415156103d057600080fd5b60018060028111156103de57fe5b600260149054906101000a900460ff1660028111156103f957fe5b14151561040557600080fd5b60028060146101000a81548160ff0219169083600281111561042357fe5b02179055507fe89152acd703c9d8c7d28829d443260b411454d45394e7995815140c8cbcbcf760405160405180910390a1600260009054906101000a900473ffffffffffffffffffffffffffffffffffffffff1673ffffffffffffffffffffffffffffffffffffffff166108fc6000549081150290604051600060405180830381858888f1935050505015156104b857600080fd5b600160009054906101000a900473ffffffffffffffffffffffffffffffffffffffff1673ffffffffffffffffffffffffffffffffffffffff166108fc3073ffffffffffffffffffffffffffffffffffffffff16319081150290604051600060405180830381858888f19350505050151561053157600080fd5b50565b600260149054906101000a900460ff1681565b600080600281111561055557fe5b600260149054906101000a900460ff16600281111561057057fe5b14151561057c57600080fd5b600054600202341480151561059057600080fd5b7fd5d55c8a68912e9a110618df8d5e2e83b8d83211c57a8ddd1203df92885dc88160405160405180910390a133600260006101000a81548173ffffffffffffffffffffffffffffffffffffffff021916908373ffffffffffffffffffffffffffffffffffffffff1602179055506001600260146101000a81548160ff0219169083600281111561061c57fe5b021790555050505600a165627a7a72305820b1464d05adf8d91e15d879942bda49ea96eea4803490682ac000b661e73490b60029",
  "source": "pragma solidity ^0.4.0;\n\n\n/// Safe Remote Purchase\ncontract Purchase {\n    uint public value;\n    address public seller;\n    address public buyer;\n    \n    enum State { Created, Locked, Inactive }\n    State public state;\n\n    // ensure msg.value is even.\n    // Division will truncate if odd.\n    function Purchase() public payable {\n        seller = msg.sender;\n        value = msg.value / 2;\n        require((2 * value) == msg.value); \n    }\n\n    modifier condition(bool _condition) {\n        require(_condition);\n        _;\n    }\n\n    modifier onlyBuyer() {\n        require(msg.sender == buyer);\n        _;\n    }\n\n    modifier onlySeller() {\n        require(msg.sender == seller);\n        _;\n    }\n\n    modifier inState(State _state) {\n        require(state == _state);\n        _;\n    }\n\n    event Aborted();\n    event PurchaseConfirmed();\n    event ItemReceived();\n\n    /// Abort the purchase and reclaim Ether.\n    /// Only called by seller before contract locked\n    function abort()\n        public\n        onlySeller()\n        inState(State.Created)\n    {\n        Aborted();\n        state = State.Inactive;\n        seller.transfer(this.balance);\n    }\n\n    /// Confirm the purchase as buyer.\n    /// Transaction has to include `2 * value` ether.\n    /// The ether will be locked until confirmReceived\n    /// is called.\n    function confirmPurchase()\n        public\n        inState(State.Created)\n        condition(msg.value == (2 * value))\n        payable\n    {\n        PurchaseConfirmed();\n        buyer = msg.sender;\n        state = State.Locked;\n    }\n    \n    /// Confirm that you (the buyer) received the item.\n    /// Releases locked ether\n    function confirmReceived()\n        public\n        onlyBuyer()\n        inState(State.Locked)\n    {\n        state = State.Inactive;\n        ItemReceived();\n        buyer.transfer(value);\n        seller.transfer(this.balance);\n    }\n}",
  "sourcePath": "/home/austin/private-chain/Projects/Purchase/contracts/Purchase.sol",
  "compiler": {
    "name": "solc",
    "version": "0.4.18+commit.9cf6e910.Emscripten.clang"
  },
  "schemaVersion": "1.0.1",
  "updatedAt": "2018-01-31T03:06:25.411Z"
}