{
  "contractName": "BlindAuction",
  "abi": [
    {
      "constant": true,
      "inputs": [
        {
          "name": "",
          "type": "address"
        },
        {
          "name": "",
          "type": "uint256"
        }
      ],
      "name": "bids",
      "outputs": [
        {
          "name": "blindedBid",
          "type": "bytes32"
        },
        {
          "name": "deposit",
          "type": "uint256"
        }
      ],
      "payable": false,
      "stateMutability": "view",
      "type": "function"
    },
    {
      "constant": true,
      "inputs": [],
      "name": "ended",
      "outputs": [
        {
          "name": "",
          "type": "bool"
        }
      ],
      "payable": false,
      "stateMutability": "view",
      "type": "function"
    },
    {
      "constant": false,
      "inputs": [],
      "name": "auctionEnd",
      "outputs": [],
      "payable": false,
      "stateMutability": "nonpayable",
      "type": "function"
    },
    {
      "constant": true,
      "inputs": [],
      "name": "beneficiary",
      "outputs": [
        {
          "name": "",
          "type": "address"
        }
      ],
      "payable": false,
      "stateMutability": "view",
      "type": "function"
    },
    {
      "constant": false,
      "inputs": [],
      "name": "withdraw",
      "outputs": [],
      "payable": false,
      "stateMutability": "nonpayable",
      "type": "function"
    },
    {
      "constant": true,
      "inputs": [],
      "name": "biddingEnd",
      "outputs": [
        {
          "name": "",
          "type": "uint256"
        }
      ],
      "payable": false,
      "stateMutability": "view",
      "type": "function"
    },
    {
      "constant": false,
      "inputs": [
        {
          "name": "_values",
          "type": "uint256[]"
        },
        {
          "name": "_fake",
          "type": "bool[]"
        },
        {
          "name": "_secret",
          "type": "bytes32[]"
        }
      ],
      "name": "reveal",
      "outputs": [],
      "payable": false,
      "stateMutability": "nonpayable",
      "type": "function"
    },
    {
      "constant": true,
      "inputs": [],
      "name": "highestBidder",
      "outputs": [
        {
          "name": "",
          "type": "address"
        }
      ],
      "payable": false,
      "stateMutability": "view",
      "type": "function"
    },
    {
      "constant": false,
      "inputs": [
        {
          "name": "_blindedBid",
          "type": "bytes32"
        }
      ],
      "name": "bid",
      "outputs": [],
      "payable": true,
      "stateMutability": "payable",
      "type": "function"
    },
    {
      "constant": true,
      "inputs": [],
      "name": "revealEnd",
      "outputs": [
        {
          "name": "",
          "type": "uint256"
        }
      ],
      "payable": false,
      "stateMutability": "view",
      "type": "function"
    },
    {
      "constant": true,
      "inputs": [],
      "name": "highestBid",
      "outputs": [
        {
          "name": "",
          "type": "uint256"
        }
      ],
      "payable": false,
      "stateMutability": "view",
      "type": "function"
    },
    {
      "inputs": [
        {
          "name": "_biddingTime",
          "type": "uint256"
        },
        {
          "name": "_revealTime",
          "type": "uint256"
        },
        {
          "name": "_beneficiary",
          "type": "address"
        }
      ],
      "payable": false,
      "stateMutability": "nonpayable",
      "type": "constructor"
    },
    {
      "anonymous": false,
      "inputs": [
        {
          "indexed": false,
          "name": "winner",
          "type": "address"
        },
        {
          "indexed": false,
          "name": "highestBid",
          "type": "uint256"
        }
      ],
      "name": "AuctionEnded",
      "type": "event"
    }
  ],
  "bytecode": "0x6060604052341561000f57600080fd5b604051606080610bb783398101604052808051906020019091908051906020019091908051906020019091905050806000806101000a81548173ffffffffffffffffffffffffffffffffffffffff021916908373ffffffffffffffffffffffffffffffffffffffff1602179055508242016001819055508160015401600281905550505050610b14806100a36000396000f3006060604052600436106100af576000357c0100000000000000000000000000000000000000000000000000000000900463ffffffff16806301495c1c146100b457806312fa6feb146101195780632a24f46c1461014657806338af3eed1461015b5780633ccfd60b146101b0578063423b217f146101c5578063900f080a146101ee57806391f90157146102c8578063957bb1e01461031d578063a6e6647714610339578063d57bde7914610362575b600080fd5b34156100bf57600080fd5b6100f4600480803573ffffffffffffffffffffffffffffffffffffffff1690602001909190803590602001909190505061038b565b6040518083600019166000191681526020018281526020019250505060405180910390f35b341561012457600080fd5b61012c6103cb565b604051808215151515815260200191505060405180910390f35b341561015157600080fd5b6101596103de565b005b341561016657600080fd5b61016e61051b565b604051808273ffffffffffffffffffffffffffffffffffffffff1673ffffffffffffffffffffffffffffffffffffffff16815260200191505060405180910390f35b34156101bb57600080fd5b6101c3610540565b005b34156101d057600080fd5b6101d861061b565b6040518082815260200191505060405180910390f35b34156101f957600080fd5b6102c66004808035906020019082018035906020019080806020026020016040519081016040528093929190818152602001838360200280828437820191505050505050919080359060200190820180359060200190808060200260200160405190810160405280939291908181526020018383602002808284378201915050505050509190803590602001908201803590602001908080602002602001604051908101604052809392919081815260200183836020028082843782019150505050505091905050610621565b005b34156102d357600080fd5b6102db610887565b604051808273ffffffffffffffffffffffffffffffffffffffff1673ffffffffffffffffffffffffffffffffffffffff16815260200191505060405180910390f35b6103376004808035600019169060200190919050506108ad565b005b341561034457600080fd5b61034c61095e565b6040518082815260200191505060405180910390f35b341561036d57600080fd5b610375610964565b6040518082815260200191505060405180910390f35b6004602052816000526040600020818154811015156103a657fe5b9060005260206000209060020201600091509150508060000154908060010154905082565b600360009054906101000a900460ff1681565b60025480421115156103ef57600080fd5b600360009054906101000a900460ff1615151561040b57600080fd5b6001600360006101000a81548160ff0219169083151502179055507fdaec4582d5d9595688c8c98545fdd1c696d41c6aeaeb636737e84ed2f5c00eda600560009054906101000a900473ffffffffffffffffffffffffffffffffffffffff16600654604051808373ffffffffffffffffffffffffffffffffffffffff1673ffffffffffffffffffffffffffffffffffffffff1681526020018281526020019250505060405180910390a16000809054906101000a900473ffffffffffffffffffffffffffffffffffffffff1673ffffffffffffffffffffffffffffffffffffffff166108fc6006549081150290604051600060405180830381858888f19350505050151561051857600080fd5b50565b6000809054906101000a900473ffffffffffffffffffffffffffffffffffffffff1681565b6000600760003373ffffffffffffffffffffffffffffffffffffffff1673ffffffffffffffffffffffffffffffffffffffff16815260200190815260200160002054905060008111151561059357600080fd5b6000600760003373ffffffffffffffffffffffffffffffffffffffff1673ffffffffffffffffffffffffffffffffffffffff168152602001908152602001600020819055503373ffffffffffffffffffffffffffffffffffffffff166108fc829081150290604051600060405180830381858888f19350505050151561061857600080fd5b50565b60015481565b6000806000806000806000600154804211151561063d57600080fd5b600254804210151561064e57600080fd5b600460003373ffffffffffffffffffffffffffffffffffffffff1673ffffffffffffffffffffffffffffffffffffffff168152602001908152602001600020805490509850888c511415156106a257600080fd5b888b511415156106b157600080fd5b888a511415156106c057600080fd5b600096505b8887101561083957600460003373ffffffffffffffffffffffffffffffffffffffff1673ffffffffffffffffffffffffffffffffffffffff1681526020019081526020016000208781548110151561071957fe5b906000526020600020906002020195508b8781518110151561073757fe5b906020019060200201518b8881518110151561074f57fe5b906020019060200201518b8981518110151561076757fe5b906020019060200201519450945094508484846040518084815260200183151515157f0100000000000000000000000000000000000000000000000000000000000000028152600101826000191660001916815260200193505050506040518091039020600019168660000154600019161415156107e45761082c565b856001015488019750831580156107ff575084866001015410155b1561081a5761080e338661096a565b156108195784880397505b5b60006001028660000181600019169055505b86806001019750506106c5565b3373ffffffffffffffffffffffffffffffffffffffff166108fc899081150290604051600060405180830381858888f19350505050151561087957600080fd5b505050505050505050505050565b600560009054906101000a900473ffffffffffffffffffffffffffffffffffffffff1681565b60015480421015156108be57600080fd5b600460003373ffffffffffffffffffffffffffffffffffffffff1673ffffffffffffffffffffffffffffffffffffffff168152602001908152602001600020805480600101828161090f9190610a87565b9160005260206000209060020201600060408051908101604052808660001916815260200134815250909190915060008201518160000190600019169055602082015181600101555050505050565b60025481565b60065481565b6000600654821115156109805760009050610a81565b6000600560009054906101000a900473ffffffffffffffffffffffffffffffffffffffff1673ffffffffffffffffffffffffffffffffffffffff16141515610a345760065460076000600560009054906101000a900473ffffffffffffffffffffffffffffffffffffffff1673ffffffffffffffffffffffffffffffffffffffff1673ffffffffffffffffffffffffffffffffffffffff168152602001908152602001600020600082825401925050819055505b8160068190555082600560006101000a81548173ffffffffffffffffffffffffffffffffffffffff021916908373ffffffffffffffffffffffffffffffffffffffff160217905550600190505b92915050565b815481835581811511610ab457600202816002028360005260206000209182019101610ab39190610ab9565b5b505050565b610ae591905b80821115610ae157600080820160009055600182016000905550600201610abf565b5090565b905600a165627a7a723058201a9e421d73f11aa0a21e82e94dd236e022229c515404ce400d360776886e37650029",
  "source": "pragma solidity ^0.4.0;\n\n\n/// @title Blind Auction\ncontract BlindAuction {\n\n    struct Bid {\n        bytes32 blindedBid;\n        uint deposit;\n    }\n\n    address public beneficiary;\n    uint public biddingEnd;\n    uint public revealEnd;\n    bool public ended;\n\n    mapping(address => Bid[]) public bids;\n\n    address public highestBidder;\n    uint public highestBid;\n\n    // Allowed withdrawals of previous bids\n    mapping(address => uint) pendingReturns;\n\n    event AuctionEnded(address winner, uint highestBid);\n\n    /// Modifiers are a convenvient way to validate inputs.\n    /// `onlyBefore` is applied to `bid` function below\n    /// The new function body is the modifier's body\n    /// where `_` is replaced by the written function body\n    modifier onlyBefore(uint _time) { require(now < _time); _; }\n    modifier onlyAfter(uint _time) { require(now > _time); _; }\n\n    function BlindAuction(\n        uint _biddingTime,\n        uint _revealTime,\n        address _beneficiary\n    ) public {\n        beneficiary = _beneficiary;\n        biddingEnd = now + _biddingTime;\n        revealEnd = biddingEnd + _revealTime;\n    }\n\n    /// Place a blinded bid with `_blindedBid` = keccak256(value,\n    /// fake, secret).\n    /// The sent ether is only refunded if the bid is correctly\n    /// revealed in the revealing phase. The bid is valid if the\n    /// ether sent together with the bid is at least \"value\" and\n    /// \"fake\" is not true. Setting \"fake\" to true and sending\n    /// not the exact amount are ways to hide the real bid but\n    /// still make the required deposit. The same address can\n    /// place multiple bids.\n    function bid(bytes32 _blindedBid)\n        public\n        payable\n        onlyBefore(biddingEnd)\n    {\n        bids[msg.sender].push(Bid({\n            blindedBid: _blindedBid,\n            deposit: msg.value\n        }));\n    }\n\n    /// Reveal your blinded bids. You will get a refund for all\n    /// correctly blinded invalid bids and for all bids except for\n    /// the totally highest.\n    function reveal(\n        uint[] _values,\n        bool[] _fake,\n        bytes32[] _secret\n    )\n        public\n        onlyAfter(biddingEnd)\n        onlyBefore(revealEnd)\n    {\n        uint length = bids[msg.sender].length;\n        require(_values.length == length);\n        require(_fake.length == length);\n        require(_secret.length == length);\n\n        uint refund;\n        for (uint i = 0; i < length; i++) {\n            Bid storage _bid = bids[msg.sender][i];\n            var (value, fake, secret) = \n                    (_values[i], _fake[i], _secret[i]);\n            if (_bid.blindedBid != keccak256(value, fake, secret)) {\n                // Bid not revealed properly\n                // Do not refund deposit\n                continue;\n            }\n            refund += _bid.deposit;\n            if (!fake && _bid.deposit >= value) {\n                if (placeBid(msg.sender, value))\n                    refund -= value;\n            }\n            _bid.blindedBid = bytes32(0);\n        }\n        msg.sender.transfer(refund);\n    }\n\n    /// Withdraw a bid that was overbid.\n    function withdraw() public {\n        uint amount = pendingReturns[msg.sender];\n        require(amount > 0);\n        pendingReturns[msg.sender] = 0;\n        msg.sender.transfer(amount);\n    }\n\n    /// End the auction and send the highest bid\n    /// to the beneficiary.\n    function auctionEnd()\n        public\n        onlyAfter(revealEnd)\n    {\n        require(!ended);\n        ended = true;\n        AuctionEnded(highestBidder, highestBid);\n        beneficiary.transfer(highestBid);\n    }\n\n    // This is an \"internal\" function which means that it\n    // can only be called from the contract itself (or from\n    // derived contracts).\n    function placeBid(address bidder, uint value)\n        internal returns (bool success)\n    {\n        if (value <= highestBid) {\n            return false;\n        }\n        if (highestBidder != 0) {\n            // refund previous highBidder\n            pendingReturns[highestBidder] += highestBid;\n        }\n        highestBid = value;\n        highestBidder = bidder;\n        return true;\n    }\n}",
  "sourcePath": "/home/austin/private-chain/Projects/BlindAuction/contracts/BlindAuction.sol",
  "compiler": {
    "name": "solc",
    "version": "0.4.18+commit.9cf6e910.Emscripten.clang"
  },
  "schemaVersion": "1.0.1",
  "updatedAt": "2018-01-31T02:47:40.244Z"
}