{
  "contractName": "MinimunViableToken",
  "abi": [
    {
      "constant": true,
      "inputs": [
        {
          "name": "",
          "type": "address"
        }
      ],
      "name": "balance",
      "outputs": [
        {
          "name": "",
          "type": "uint256"
        }
      ],
      "payable": false,
      "stateMutability": "view",
      "type": "function"
    },
    {
      "inputs": [
        {
          "name": "initialSupply",
          "type": "uint256"
        }
      ],
      "payable": false,
      "stateMutability": "nonpayable",
      "type": "constructor"
    },
    {
      "constant": false,
      "inputs": [
        {
          "name": "_to",
          "type": "address"
        },
        {
          "name": "_value",
          "type": "uint256"
        }
      ],
      "name": "transfer",
      "outputs": [],
      "payable": false,
      "stateMutability": "nonpayable",
      "type": "function"
    }
  ],
  "bytecode": "0x6060604052341561000f57600080fd5b60405160208061031783398101604052808051906020019091905050806000803373ffffffffffffffffffffffffffffffffffffffff1673ffffffffffffffffffffffffffffffffffffffff16815260200190815260200160002081905550506102998061007e6000396000f30060606040526004361061004c576000357c0100000000000000000000000000000000000000000000000000000000900463ffffffff168063a9059cbb14610051578063e3d670d714610093575b600080fd5b341561005c57600080fd5b610091600480803573ffffffffffffffffffffffffffffffffffffffff169060200190919080359060200190919050506100e0565b005b341561009e57600080fd5b6100ca600480803573ffffffffffffffffffffffffffffffffffffffff16906020019091905050610255565b6040518082815260200191505060405180910390f35b806000803373ffffffffffffffffffffffffffffffffffffffff1673ffffffffffffffffffffffffffffffffffffffff1681526020019081526020016000205411151561012c57600080fd5b6000808373ffffffffffffffffffffffffffffffffffffffff1673ffffffffffffffffffffffffffffffffffffffff16815260200190815260200160002054816000808573ffffffffffffffffffffffffffffffffffffffff1673ffffffffffffffffffffffffffffffffffffffff1681526020019081526020016000205401101515156101b957600080fd5b806000803373ffffffffffffffffffffffffffffffffffffffff1673ffffffffffffffffffffffffffffffffffffffff16815260200190815260200160002060008282540392505081905550806000808473ffffffffffffffffffffffffffffffffffffffff1673ffffffffffffffffffffffffffffffffffffffff168152602001908152602001600020600082825401925050819055505050565b600060205280600052604060002060009150905054815600a165627a7a72305820b7b6ff1583c739a1bea56c09063030e20d278cf85423db4db22a1ebf225ca7c30029",
  "source": "pragma solidity ^0.4.0;\n\n\ncontract MinimunViableToken {\n    // array of all balances\n    mapping (address => uint256) public balance;\n\n    function MinimunViableToken(\n        uint256 initialSupply\n    ) public {\n        balance[msg.sender] = initialSupply;\n    }\n\n    function transfer(\n        address _to,\n        uint256 _value\n    ) public { \n        require(balance[msg.sender] > _value);\n        require(balance[_to] + _value >= balance[_to]);\n        balance[msg.sender] -= _value;\n        balance[_to] += _value;\n    }\n}",
  "sourcePath": "/home/stin/private-chain/Projects/MinimunViableToken/contracts/MinimunViableToken.sol",
  "compiler": {
    "name": "solc",
    "version": "0.4.19+commit.c4cbbb05.Emscripten.clang"
  },
  "schemaVersion": "1.0.1",
  "updatedAt": "2018-02-21T05:36:36.163Z"
}