{
  "contractName": "ArrayContract",
  "abi": [
    {
      "constant": false,
      "inputs": [
        {
          "name": "data",
          "type": "bytes"
        }
      ],
      "name": "byteArrays",
      "outputs": [],
      "payable": false,
      "stateMutability": "nonpayable",
      "type": "function"
    },
    {
      "constant": false,
      "inputs": [],
      "name": "clear",
      "outputs": [],
      "payable": false,
      "stateMutability": "nonpayable",
      "type": "function"
    },
    {
      "constant": true,
      "inputs": [
        {
          "name": "size",
          "type": "uint256"
        }
      ],
      "name": "createMemoryArray",
      "outputs": [
        {
          "name": "",
          "type": "bytes"
        }
      ],
      "payable": false,
      "stateMutability": "pure",
      "type": "function"
    },
    {
      "constant": false,
      "inputs": [
        {
          "name": "index",
          "type": "uint256"
        },
        {
          "name": "flagA",
          "type": "bool"
        },
        {
          "name": "flagB",
          "type": "bool"
        }
      ],
      "name": "setFlagPair",
      "outputs": [],
      "payable": false,
      "stateMutability": "nonpayable",
      "type": "function"
    },
    {
      "constant": false,
      "inputs": [
        {
          "name": "flag",
          "type": "bool[2]"
        }
      ],
      "name": "addFlag",
      "outputs": [
        {
          "name": "",
          "type": "uint256"
        }
      ],
      "payable": false,
      "stateMutability": "nonpayable",
      "type": "function"
    },
    {
      "constant": false,
      "inputs": [
        {
          "name": "newPairs",
          "type": "bool[2][]"
        }
      ],
      "name": "setAllFlagPairs",
      "outputs": [],
      "payable": false,
      "stateMutability": "nonpayable",
      "type": "function"
    },
    {
      "constant": false,
      "inputs": [
        {
          "name": "newSize",
          "type": "uint256"
        }
      ],
      "name": "changeFlagArraySize",
      "outputs": [],
      "payable": false,
      "stateMutability": "nonpayable",
      "type": "function"
    }
  ],
  "bytecode": "0x6060604052341561000f57600080fd5b610a3f8061001e6000396000f300606060405260043610610083576000357c0100000000000000000000000000000000000000000000000000000000900463ffffffff16806331a561101461008857806352efea6e146100e55780636d236703146100fa5780637d7e5e3d14610196578063b9cce72c146101cf578063deff71b814610229578063f5933f66146102bf575b600080fd5b341561009357600080fd5b6100e3600480803590602001908201803590602001908080601f016020809104026020016040519081016040528093929190818152602001838380828437820191505050505050919050506102e2565b005b34156100f057600080fd5b6100f861041b565b005b341561010557600080fd5b61011b600480803590602001909190505061044c565b6040518080602001828103825283818151815260200191508051906020019080838360005b8381101561015b578082015181840152602081019050610140565b50505050905090810190601f1680156101885780820380516001836020036101000a031916815260200191505b509250505060405180910390f35b34156101a157600080fd5b6101cd600480803590602001909190803515159060200190919080351515906020019091905050610509565b005b34156101da57600080fd5b610213600480806040019060028060200260405190810160405280929190826002602002808284378201915050505050919050506105a2565b6040518082815260200191505060405180910390f35b341561023457600080fd5b6102bd60048080359060200190820180359060200190808060200260200160405190810160405280939291908181526020016000905b828210156102af57848483905060400201600280602002604051908101604052809291908260026020028082843782019150505050508152602001906001019061026a565b5050505050919050506105e3565b005b34156102ca57600080fd5b6102e060048080359060200190919050506105ff565b005b806210000190805190602001906102fa929190610613565b506007621000018181805460018160011615610100020316600290049050019150816103269190610693565b5060087f010000000000000000000000000000000000000000000000000000000000000002621000016003815460018160011615610100020316600290048110151561036e57fe5b81546001161561038d5790600052602060002090602091828204019190065b601f036101000a81548160ff021916907f01000000000000000000000000000000000000000000000000000000000000008404021790555062100001600281546001816001161561010002031660029004811015156103e857fe5b8154600116156104075790600052602060002090602091828204019190065b601f036101000a81549060ff021916905550565b62100000600061042b919061075c565b600080610438919061077d565b600062100000816104499190610792565b50565b6104546107be565b61045c6107be565b60008360405180591061046c5750595b9080825280601f01601f19166020018201604052509150600090505b81518110156104ff57807f01000000000000000000000000000000000000000000000000000000000000000282828151811015156104c257fe5b9060200101907effffffffffffffffffffffffffffffffffffffffffffffffffffffffffffff1916908160001a9053508080600101915050610488565b8192505050919050565b81621000008481548110151561051b57fe5b9060005260206000209001600060028110151561053457fe5b602091828204019190066101000a81548160ff02191690831515021790555080621000008481548110151561056557fe5b9060005260206000209001600160028110151561057e57fe5b602091828204019190066101000a81548160ff021916908315150217905550505050565b60006210000080548060010182816105ba91906107d2565b916000526020600020900160008490919091509060026105db9291906107fe565b509050919050565b806210000090805190602001906105fb929190610897565b5050565b80621000008161060f9190610792565b5050565b828054600181600116156101000203166002900490600052602060002090601f016020900481019282601f1061065457805160ff1916838001178555610682565b82800160010185558215610682579182015b82811115610681578251825591602001919060010190610666565b5b50905061068f91906108f2565b5090565b81546001816001161561010002031660029004825481601f106106ee5782601f106106d3575b826008026101000360020a80910402828001178355610757565b60ff1916836000526020600020558180016001018355610757565b82601f1061071e575082600052602060002080549082601f016020900481019061071891906108f2565b506106b9565b5081800160010183558181151161075757601f016020900481601f0160209004836000526020600020918201910161075691906108f2565b5b505050565b508054600082559060005260206000209081019061077a9190610917565b50565b508062100000019061078f91906108f2565b50565b8154818355818115116107b9578183600052602060002091820191016107b89190610917565b5b505050565b602060405190810160405280600081525090565b8154818355818115116107f9578183600052602060002091820191016107f89190610917565b5b505050565b826002601f016020900481019282156108865791602002820160005b8382111561085757835183826101000a81548160ff021916908315150217905550926020019260010160208160000104928301926001030261081a565b80156108845782816101000a81549060ff0219169055600101602081600001049283019260010302610857565b505b5090506108939190610943565b5090565b8280548282559060005260206000209081019282156108e1579160200282015b828111156108e0578251829060026108d0929190610973565b50916020019190600101906108b7565b5b5090506108ee9190610917565b5090565b61091491905b808211156109105760008160009055506001016108f8565b5090565b90565b61094091905b8082111561093c57600081816109339190610a0c565b5060010161091d565b5090565b90565b61097091905b8082111561096c57600081816101000a81549060ff021916905550600101610949565b5090565b90565b826002601f016020900481019282156109fb5791602002820160005b838211156109cc57835183826101000a81548160ff021916908315150217905550926020019260010160208160000104928301926001030261098f565b80156109f95782816101000a81549060ff02191690556001016020816000010492830192600103026109cc565b505b509050610a089190610943565b5090565b50600090555600a165627a7a72305820867b4d73adcf17c3139e6e39fa315b369c142c78ff23f66ddfcea8be738a12c50029",
  "source": "pragma solidity ^0.4.0;\n\n\ncontract ArrayContract {\n    uint[2**20] m_lotOfIntegers;\n    // The following is a dynamic array of pairs\n    bool[2][] m_pairsOfFlags;\n\n    function setAllFlagPairs(bool[2][] newPairs) public {\n        m_pairsOfFlags = newPairs;\n    }\n\n    function setFlagPair(\n        uint index,\n        bool flagA,\n        bool flagB\n    ) public {\n        m_pairsOfFlags[index][0] = flagA;\n        m_pairsOfFlags[index][1] = flagB;\n    }\n\n    function changeFlagArraySize(uint newSize) public {\n        m_pairsOfFlags.length = newSize;\n    }\n\n    function clear() public {\n        // clear the arrays completely\n        delete m_pairsOfFlags;\n        delete m_lotOfIntegers;\n        // 'identical' effect here\n        m_pairsOfFlags.length = 0;\n    }\n\n    bytes m_byteData;\n\n    function byteArrays(bytes data) public {\n        // 'bytes' are stored without padding\n        // but can be treated as 'uint8[]'\n        m_byteData = data;\n        m_byteData.length += 7;\n        m_byteData[3] = byte(8);\n        delete m_byteData[2];\n    }\n\n    function addFlag(bool[2] flag) public returns (uint) {\n        return m_pairsOfFlags.push(flag);\n    }\n\n    function createMemoryArray(uint size) public pure\n        returns (bytes)\n    {\n        // dynamic memory arrays created using 'new'\n        //uint[2][] memory arrayOfPairs = new uint[2][](size);\n        // Create a dynamic bye array:\n        bytes memory b = new bytes(size);\n        for (uint i = 0; i < b.length; i++) {\n            b[i] = byte(i);\n        }\n        return b;\n    }\n}",
  "sourcePath": "/home/austin/private-chain/Projects/ArrayContract/contracts/ArrayContract.sol",
  "compiler": {
    "name": "solc",
    "version": "0.4.18+commit.9cf6e910.Emscripten.clang"
  },
  "schemaVersion": "1.0.1",
  "updatedAt": "2018-01-31T03:32:15.236Z"
}