{
  "contractName": "Owned",
  "abi": [
    {
      "constant": true,
      "inputs": [],
      "name": "owner",
      "outputs": [
        {
          "name": "",
          "type": "address"
        }
      ],
      "payable": false,
      "stateMutability": "view",
      "type": "function"
    },
    {
      "constant": false,
      "inputs": [
        {
          "name": "newOwner",
          "type": "address"
        }
      ],
      "name": "transferOwnership",
      "outputs": [],
      "payable": false,
      "stateMutability": "nonpayable",
      "type": "function"
    },
    {
      "inputs": [],
      "payable": false,
      "stateMutability": "nonpayable",
      "type": "constructor"
    }
  ],
  "bytecode": "0x6060604052341561000f57600080fd5b336000806101000a81548173ffffffffffffffffffffffffffffffffffffffff021916908373ffffffffffffffffffffffffffffffffffffffff1602179055506101ce8061005e6000396000f30060606040526004361061004c576000357c0100000000000000000000000000000000000000000000000000000000900463ffffffff1680638da5cb5b14610051578063f2fde38b146100a6575b600080fd5b341561005c57600080fd5b6100646100df565b604051808273ffffffffffffffffffffffffffffffffffffffff1673ffffffffffffffffffffffffffffffffffffffff16815260200191505060405180910390f35b34156100b157600080fd5b6100dd600480803573ffffffffffffffffffffffffffffffffffffffff16906020019091905050610104565b005b6000809054906101000a900473ffffffffffffffffffffffffffffffffffffffff1681565b6000809054906101000a900473ffffffffffffffffffffffffffffffffffffffff1673ffffffffffffffffffffffffffffffffffffffff163373ffffffffffffffffffffffffffffffffffffffff1614151561015f57600080fd5b806000806101000a81548173ffffffffffffffffffffffffffffffffffffffff021916908373ffffffffffffffffffffffffffffffffffffffff160217905550505600a165627a7a72305820089bfcc41891122ad95cbe2490162a03f317bf89acb4b8da4107952021e2f7700029",
  "source": "pragma solidity ^0.4.0;\n\n\ncontract Owned {\n    address public owner;\n    \n    function Owned() public {\n        owner = msg.sender;\n    }\n\n    modifier onlyOwner {\n        require(msg.sender == owner);\n        _;\n    }\n\n    function transferOwnership(address newOwner)\n        public\n        onlyOwner()\n    {\n        owner = newOwner;\n    }\n}\n\n\ncontract ArrayContract is Owned {\n    uint[2**20] mLotOfIntegers;\n    // The following is a dynamic array of pairs\n    bool[2][] mPairsOfFlags;\n\n    function ArrayContract() public {\n        if (owner != 0)\n            owner = msg.sender;\n    }\n\n    function setAllFlagPairs(bool[2][] newPairs) public {\n        mPairsOfFlags = newPairs;\n    }\n\n    function setFlagPair(\n        uint index,\n        bool flagA,\n        bool flagB\n    ) public {\n        mPairsOfFlags[index][0] = flagA;\n        mPairsOfFlags[index][1] = flagB;\n    }\n\n    function changeFlagArraySize(uint newSize) public {\n        mPairsOfFlags.length = newSize;\n    }\n\n    function clear() public {\n        // clear the arrays completely\n        delete mPairsOfFlags;\n        delete mLotOfIntegers;\n        // 'identical' effect here\n        mPairsOfFlags.length = 0;\n    }\n\n    bytes mByteData;\n\n    function byteArrays(bytes data) public {\n        // 'bytes' are stored without padding\n        // but can be treated as 'uint8[]'\n        mByteData = data;\n        mByteData.length += 7;\n        mByteData[3] = byte(8);\n        delete mByteData[2];\n    }\n\n    function addFlag(bool[2] flag) public returns (uint) {\n        return mPairsOfFlags.push(flag);\n    }\n\n    function createMemoryArray(uint size) public pure\n        returns (bytes)\n    {\n        // dynamic memory arrays created using 'new'\n        //uint[2][] memory arrayOfPairs = new uint[2][](size);\n        // Create a dynamic bye array:\n        bytes memory b = new bytes(size);\n        for (uint i = 0; i < b.length; i++) {\n            b[i] = byte(i);\n        }\n        return b;\n    }\n}",
  "sourcePath": "/home/austin/private-chain/Projects/ArrayContract/contracts/ArrayContract.sol",
  "compiler": {
    "name": "solc",
    "version": "0.4.18+commit.9cf6e910.Emscripten.clang"
  },
  "schemaVersion": "1.0.1",
  "updatedAt": "2018-01-31T04:58:29.182Z"
}